{
  "_format": "hh-sol-artifact-1",
  "contractName": "OrbDAO",
  "sourceName": "contracts/DAO.sol",
  "abi": [
    {
      "anonymous": false,
      "inputs": [
        {
          "indexed": false,
          "internalType": "uint256",
          "name": "proposalId",
          "type": "uint256"
        },
        {
          "indexed": false,
          "internalType": "string",
          "name": "description",
          "type": "string"
        }
      ],
      "name": "NewProposal",
      "type": "event"
    },
    {
      "anonymous": false,
      "inputs": [
        {
          "indexed": false,
          "internalType": "uint256",
          "name": "proposalId",
          "type": "uint256"
        },
        {
          "indexed": false,
          "internalType": "bool",
          "name": "inSupport",
          "type": "bool"
        },
        {
          "indexed": false,
          "internalType": "address",
          "name": "voter",
          "type": "address"
        }
      ],
      "name": "Vote",
      "type": "event"
    },
    {
      "inputs": [],
      "name": "admin",
      "outputs": [
        {
          "internalType": "address",
          "name": "",
          "type": "address"
        }
      ],
      "stateMutability": "view",
      "type": "function"
    },
    {
      "inputs": [
        {
          "internalType": "string",
          "name": "description",
          "type": "string"
        }
      ],
      "name": "createProposal",
      "outputs": [],
      "stateMutability": "nonpayable",
      "type": "function"
    },
    {
      "inputs": [
        {
          "internalType": "uint256",
          "name": "proposalId",
          "type": "uint256"
        }
      ],
      "name": "executeProposal",
      "outputs": [],
      "stateMutability": "nonpayable",
      "type": "function"
    },
    {
      "inputs": [],
      "name": "init",
      "outputs": [],
      "stateMutability": "nonpayable",
      "type": "function"
    },
    {
      "inputs": [],
      "name": "proposalCount",
      "outputs": [
        {
          "internalType": "uint256",
          "name": "",
          "type": "uint256"
        }
      ],
      "stateMutability": "view",
      "type": "function"
    },
    {
      "inputs": [
        {
          "internalType": "uint256",
          "name": "",
          "type": "uint256"
        }
      ],
      "name": "proposals",
      "outputs": [
        {
          "internalType": "uint256",
          "name": "id",
          "type": "uint256"
        },
        {
          "internalType": "string",
          "name": "description",
          "type": "string"
        },
        {
          "internalType": "uint256",
          "name": "forVotes",
          "type": "uint256"
        },
        {
          "internalType": "uint256",
          "name": "againstVotes",
          "type": "uint256"
        },
        {
          "internalType": "bool",
          "name": "executed",
          "type": "bool"
        }
      ],
      "stateMutability": "view",
      "type": "function"
    },
    {
      "inputs": [
        {
          "internalType": "uint256",
          "name": "proposalId",
          "type": "uint256"
        },
        {
          "internalType": "bool",
          "name": "inSupport",
          "type": "bool"
        }
      ],
      "name": "vote",
      "outputs": [],
      "stateMutability": "nonpayable",
      "type": "function"
    },
    {
      "inputs": [
        {
          "internalType": "address",
          "name": "",
          "type": "address"
        }
      ],
      "name": "votes",
      "outputs": [
        {
          "internalType": "uint256",
          "name": "",
          "type": "uint256"
        }
      ],
      "stateMutability": "view",
      "type": "function"
    }
  ],
  "bytecode": "0x608060405234801561001057600080fd5b50610a2e806100206000396000f3fe608060405234801561001057600080fd5b50600436106100885760003560e01c8063d8bff5a51161005b578063d8bff5a5146100f5578063da35c66414610123578063e1c7392a1461012c578063f851a4401461013457600080fd5b8063013cf08b1461008d5780630d61b519146100ba57806349c2a1a6146100cf578063c9d27afe146100e2575b600080fd5b6100a061009b366004610600565b61015f565b6040516100b195949392919061065f565b60405180910390f35b6100cd6100c8366004610600565b61021b565b005b6100cd6100dd3660046106ad565b610364565b6100cd6100f036600461075e565b610461565b610115610103366004610793565b60036020526000908152604090205481565b6040519081526020016100b1565b61011560015481565b6100cd6105a5565b600054610147906001600160a01b031681565b6040516001600160a01b0390911681526020016100b1565b60026020526000908152604090208054600182018054919291610181906107c3565b80601f01602080910402602001604051908101604052809291908181526020018280546101ad906107c3565b80156101fa5780601f106101cf576101008083540402835291602001916101fa565b820191906000526020600020905b8154815290600101906020018083116101dd57829003601f168201915b50505050600283015460038401546004909401549293909290915060ff1685565b6000546001600160a01b0316331461024e5760405162461bcd60e51b8152600401610245906107fd565b60405180910390fd5b8060008111801561026157506001548111155b6102a35760405162461bcd60e51b8152602060048201526013602482015272125b9d985b1a59081c1c9bdc1bdcd85b081251606a1b6044820152606401610245565b6000828152600260205260409020600481015460ff16156102d65760405162461bcd60e51b81526004016102459061083e565b6000816003015482600201546102ec9190610896565b90506000811161033e5760405162461bcd60e51b815260206004820152601e60248201527f4e6f20766f746573206361737420666f72207468652070726f706f73616c00006044820152606401610245565b81600301548260020154111561035e5760048201805460ff191660011790555b50505050565b6000546001600160a01b0316331461038e5760405162461bcd60e51b8152600401610245906107fd565b6001805490600061039e836108af565b90915550506040805160a081018252600180548083526020808401868152600085870181905260608601819052608086018190529283526002909152939020825181559251919291908201906103f49082610917565b506040828101516002830155606083015160038301556080909201516004909101805460ff191691151591909117905560015490517fa9ef596c73fbcfb4a78bc139b1a19c35247c1f37d2489c0513ad2dd3eb7d8c6b916104569184906109d7565b60405180910390a150565b8160008111801561047457506001548111155b6104b65760405162461bcd60e51b8152602060048201526013602482015272125b9d985b1a59081c1c9bdc1bdcd85b081251606a1b6044820152606401610245565b6000838152600260205260409020600481015460ff16156104e95760405162461bcd60e51b81526004016102459061083e565b33600090815260036020526040812054900361035e57821561052157600281018054906000610517836108af565b9190505550610539565b600381018054906000610533836108af565b91905055505b3360008181526003602052604090819020869055517fe189549b3895cecb056e1633e17290b936bbc619acbb3bd3b00593687a4ee4fc91610597918791879192835290151560208301526001600160a01b0316604082015260600190565b60405180910390a150505050565b6000546001600160a01b0316156105ec5760405162461bcd60e51b815260206004820152600b60248201526a105b1c9958591e4814d95d60aa1b6044820152606401610245565b600080546001600160a01b03191633179055565b60006020828403121561061257600080fd5b5035919050565b6000815180845260005b8181101561063f57602081850181015186830182015201610623565b506000602082860101526020601f19601f83011685010191505092915050565b85815260a06020820152600061067860a0830187610619565b6040830195909552506060810192909252151560809091015292915050565b634e487b7160e01b600052604160045260246000fd5b6000602082840312156106bf57600080fd5b813567ffffffffffffffff808211156106d757600080fd5b818401915084601f8301126106eb57600080fd5b8135818111156106fd576106fd610697565b604051601f8201601f19908116603f0116810190838211818310171561072557610725610697565b8160405282815287602084870101111561073e57600080fd5b826020860160208301376000928101602001929092525095945050505050565b6000806040838503121561077157600080fd5b823591506020830135801515811461078857600080fd5b809150509250929050565b6000602082840312156107a557600080fd5b81356001600160a01b03811681146107bc57600080fd5b9392505050565b600181811c908216806107d757607f821691505b6020821081036107f757634e487b7160e01b600052602260045260246000fd5b50919050565b60208082526021908201527f4f6e6c792061646d696e2063616e2063616c6c20746869732066756e6374696f6040820152603760f91b606082015260800190565b60208082526022908201527f50726f706f73616c2068617320616c7265616479206265656e20657865637574604082015261195960f21b606082015260800190565b634e487b7160e01b600052601160045260246000fd5b808201808211156108a9576108a9610880565b92915050565b6000600182016108c1576108c1610880565b5060010190565b601f82111561091257600081815260208120601f850160051c810160208610156108ef5750805b601f850160051c820191505b8181101561090e578281556001016108fb565b5050505b505050565b815167ffffffffffffffff81111561093157610931610697565b6109458161093f84546107c3565b846108c8565b602080601f83116001811461097a57600084156109625750858301515b600019600386901b1c1916600185901b17855561090e565b600085815260208120601f198616915b828110156109a95788860151825594840194600190910190840161098a565b50858210156109c75787850151600019600388901b60f8161c191681555b5050505050600190811b01905550565b8281526040602082015260006109f06040830184610619565b94935050505056fea26469706673582212202a206178f72443e5db79362a997ea7a6e547d18c55bf548f42fd261ccaf32cda64736f6c63430008140033",
  "linkReferences": {},
  "deployedLinkReferences": {}
}